:040000008A11112828
:10000800FE00030EF6000408F7000A08F800831241
:1000180003137F08F9008A11D6298A11382C831214
:100028000313DC00E501EE288A115E248A1183128D
:100038000313DA005A08D20008298A115E248A11AB
:1000480083120313DA005A08E500E508031D2D287A
:100058002E283028071108290715082908298A1188
:100068005E248A1183120313DA005A08E500E508B2
:10007800031D3F284028422887100829871408298B
:1000880008298A115E248A1183120313DA005A0898
:10009800E500E508031D51285228542807100829AF
:1000A8000714082908298A115E248A118312031368
:1000B800DA005A08E500E508031D63286428662865
:1000C800051108290515082908298A115E248A11AD
:1000D80083120313DA005A08E500E508031D7528A2
:1000E80076287828851008298514082908298A116E
:1000F8005E248A1183120313DA005A08E500E50822
:10010800031D872888288A28051008290514082926
:100118000829DD01DE01DF01E001E301E401E1017D
:10012800E2016208803AFF0080307F02031D9E28AA
:1001380002306102031CA128A228A428CE28CE28B8
:100148008A115E248A1183120313DA00DB015A082C
:10015800DD005B08DE008A115E248A118312031316
:10016800DA00DB015A08DF005B08E0000130E10734
:100178000318E20A0030E2076208803AFF00803084
:100188007F02031DC92802306102031CCC28CD2838
:10019800A428CE28831203135F08DB00DA015D0868
:1001A8005A04E3005E085B04E40002300310E30D28
:1001B800E40DFF3E031DDA286408C101C107630886
:1001C800C001C0076408C301C3076308C201C207AE
:1001D800082908295C080A3A03191828013A03195A
:1001E8002128073A03193328013A03194528033A05
:1001F80003195728013A031969281F3A03197B285C
:10020800CC3A03198D28082908008A1187248A11F5
:1002180083120313E6006608EB00CC298A11C82371
:100228008A1183120313E6006608EC00D908031D3F
:100238001E291F292A296C08243A031D2429252947
:10024800CC29D9010314D90DCC29CC295908013A54
:10025800031D2F29302942296C084D3A03193529E5
:1002680036293929E701E8013D290230E700003045
:10027800E8006708E6006608D900CC295908023A60
:10028800031D4729482966296C08213A03194D2975
:100298004E295D296C083C3A0319532954295D29D4
:1002A8006C083E3A031959295A295D29E901EA01DE
:1002B80061290330E9000030EA006908E6006608B1
:1002C800D900CC295908033A031D6B296C298329C5
:1002D80041306C02031C712972297429D901CC2977
:1002E8006C08E6006608D7006C08E6006608D400CB
:1002F800D801D6010430E6006608D900CC2959088F
:10030800043A031D8829892996296C08E60066089D
:10031800D5006C08E6006608D4060530E6006608D5
:10032800D900CC295908053A031D9B299C29C429C1
:10033800570858020318A129A229B3296C08E60016
:100348006608D4066C08E6005808A03E84006608D3
:10035800831380000130E6006608D807CC295408CA
:100368006C06031DB829B929BE2955088A1113201E
:100378008A11BE2983120313D901EB01CC29CC2998
:10038800D901CC29CC29CC29CC29CC29CC29CC29D8
:100398000130EB026B08FF3A031DD329D429122937
:1003A800D52908000130831603130C1C0039831269
:1003B80003130C1C003900380319E329E429402AE7
:1003C8000C101010F208031DEA29EB29FB298A11E9
:1003D80080248A1183120313071587144F088F008E
:1003E8004E088E000130F5007508F2073E2A7208A3
:1003F800013A031D002A012A152A071187107308DC
:10040800F5007508F4008A1179248A11D130831215
:1004180003138F001F308E000130F5007508F207B6
:100428003E2A02307202031C1A2A1B2A2C2A063082
:1004380072020318202A212A2C2A07118710D1308A
:100448008F001F308E000130F5007508F2073E2A34
:1004580007118710E9308F0090308E00F2010130CB
:10046800F5007508F0073F30F5007508F0053E2ADD
:100478003E2A3E2A1014402A0130831603138C1E8C
:100488000039831203138C1E0039003803194D2AD2
:100498004E2A632A1408F5007308203E8400750864
:1004A800831380000130F5007508F30720307302CC
:1004B800031C5F2A602A632AF301632A632A7908E6
:1004C800FF0078088A0077088400760E8300FE0E05
:1004D8007E0E09008A114D248A118A1172248A110C
:1004E80001308A11E9238A1183120313E6010230CD
:1004F8006602031C802A812A832AAD2AAD2A66084F
:10050800E2006207403E8400703083138000840A52
:10051800173080006608E2006207403E8400000849
:10052800E300840A0008E4006608E50065074A3E1F
:10053800840063088000840A640880000130E200B7
:100548006208E60702306602031CAB2AAC2A832A3B
:10055800AD2AFF308F00FF308E0010148A11C92297
:100568008A118A1122248A11003083120313DD00B4
:100578000330DC00D030DB009030DA008A114723EA
:100588008A11831203138715080083120313DC01F1
:10059800CE2ACE2A7208031DD22ACE2A0830720229
:1005A8000318D72AD82ACE2AD92A72088312031305
:1005B800DA005A08DC00E12AE12A5C08720603190D
:1005C800E62AE72AE12AE82A4A08B13EDA004B0877
:1005D8000318013EFF3EDB00DA09DB09DA0A0319DA
:1005E800DB0A5A08CE005B08CF004C08B13EDA009F
:1005F8004D080318013EFF3EDB00DA09DB09DA0A81
:100608000319DB0A5A08D0005B08D10008008B01E7
:100618008B170B170130831603138C000C14013051
:100628008312031390001010FF30990083160313F0
:1006380091018312031385013F308316031385004C
:100648008312031387013F30831603138700811336
:10065800013095001F139F161F12831203131F14D6
:1006680083160313871107118710071005118510CA
:10067800051083120313871107118710071005113E
:10068800851005100800831203135D085C045B04E1
:100698005A04031D502B512B532B782B782B0130E8
:1006A800DE000030DF000030E0000030E1005E08CE
:1006B800DA025F08031C5F0F622B632BDB02600802
:1006C800031C600F682B692BDC026108031C610F97
:1006D8006E2B6F2BDD025D085C045B045A04031D5E
:1006E800762B772B532B782B080083120313DD010D
:1006F800932B7E2B961C812B822B7E2B832B5D08C4
:100708005A0784005B0803185B0AFF008A11062455
:100718008A1195000130DC005C08DD07932B5D0829
:100728005A0784005B0803185B0AFF008A11062435
:100738008A110038031DA12BA22B7E2BA32B0800A6
:100748008A110B238A118A116E228A11AB2B8A1106
:1007580009218A118A1122248A1183120313ED00B8
:100768006D08D3004108CB01CB074008CA01CA076E
:100778004308CD01CD074208CC01CC078A11C92214
:100788008A11AB2B8A11112883120313DB01740819
:10079800203E840083130008DA005A08DB0073083F
:1007A80074060319D82BD92BE62B0130DA005A0826
:1007B800F40720307402031CE22BE32BE62BF40130
:1007C800E62BE62B5B08E82B080083120313DE00F8
:1007D8005E08DA008030DB008A1179238A11F42B55
:1007E80083120313961CF92BFA2BF42BFB2B0D30D9
:1007F8009500FE2B961C012C022CFE2B032C0A3094
:1008080095000800FF1B102C83137F18831700081E
:10081800840A0319FF0A080004308A000408840ABD
:10082800820700345534533441345234543420341C
:1008380049346E34693474342E340034831203130B
:10084800DB017008DA005A08DC007103FF3A5C0724
:10085800403E3F39DA005A08DB005C08DA005A08E3
:10086800F1005B08372C0800F001F101F201F301F7
:10087800F4018313203084005A308A116A248A11C3
:10088800A0308400E0308A116A248A1183018A1119
:10089800A42B8312031397171612961683160313A5
:1008A80007128716831203131615193093008B1736
:1008B8000B170800013083120313D607FF305607C1
:1008C800A03E840083130008692C0800640080019E
:1008D800840A04060319003404066B2C83120313DC
:1008E8001716831603138C160800831203131716A2
:1008F800831603138C16080083120313171283162A
:1009080003138C1208007403FF3A73071F398C2CE9
:020918000800D5
:02400E00C200EE
:00000001FF
